{
  "_format": "hh-sol-artifact-1",
  "contractName": "CredentialNFT",
  "sourceName": "contracts/CredentialNFT.sol",
  "abi": [
    {
      "inputs": [
        {
          "internalType": "address",
          "name": "admin",
          "type": "address"
        }
      ],
      "stateMutability": "nonpayable",
      "type": "constructor"
    },
    {
      "inputs": [],
      "name": "AccessControlBadConfirmation",
      "type": "error"
    },
    {
      "inputs": [
        {
          "internalType": "address",
          "name": "account",
          "type": "address"
        },
        {
          "internalType": "bytes32",
          "name": "neededRole",
          "type": "bytes32"
        }
      ],
      "name": "AccessControlUnauthorizedAccount",
      "type": "error"
    },
    {
      "inputs": [],
      "name": "ECDSAInvalidSignature",
      "type": "error"
    },
    {
      "inputs": [
        {
          "internalType": "uint256",
          "name": "length",
          "type": "uint256"
        }
      ],
      "name": "ECDSAInvalidSignatureLength",
      "type": "error"
    },
    {
      "inputs": [
        {
          "internalType": "bytes32",
          "name": "s",
          "type": "bytes32"
        }
      ],
      "name": "ECDSAInvalidSignatureS",
      "type": "error"
    },
    {
      "inputs": [
        {
          "internalType": "address",
          "name": "sender",
          "type": "address"
        },
        {
          "internalType": "uint256",
          "name": "tokenId",
          "type": "uint256"
        },
        {
          "internalType": "address",
          "name": "owner",
          "type": "address"
        }
      ],
      "name": "ERC721IncorrectOwner",
      "type": "error"
    },
    {
      "inputs": [
        {
          "internalType": "address",
          "name": "operator",
          "type": "address"
        },
        {
          "internalType": "uint256",
          "name": "tokenId",
          "type": "uint256"
        }
      ],
      "name": "ERC721InsufficientApproval",
      "type": "error"
    },
    {
      "inputs": [
        {
          "internalType": "address",
          "name": "approver",
          "type": "address"
        }
      ],
      "name": "ERC721InvalidApprover",
      "type": "error"
    },
    {
      "inputs": [
        {
          "internalType": "address",
          "name": "operator",
          "type": "address"
        }
      ],
      "name": "ERC721InvalidOperator",
      "type": "error"
    },
    {
      "inputs": [
        {
          "internalType": "address",
          "name": "owner",
          "type": "address"
        }
      ],
      "name": "ERC721InvalidOwner",
      "type": "error"
    },
    {
      "inputs": [
        {
          "internalType": "address",
          "name": "receiver",
          "type": "address"
        }
      ],
      "name": "ERC721InvalidReceiver",
      "type": "error"
    },
    {
      "inputs": [
        {
          "internalType": "address",
          "name": "sender",
          "type": "address"
        }
      ],
      "name": "ERC721InvalidSender",
      "type": "error"
    },
    {
      "inputs": [
        {
          "internalType": "uint256",
          "name": "tokenId",
          "type": "uint256"
        }
      ],
      "name": "ERC721NonexistentToken",
      "type": "error"
    },
    {
      "anonymous": false,
      "inputs": [
        {
          "indexed": true,
          "internalType": "address",
          "name": "owner",
          "type": "address"
        },
        {
          "indexed": true,
          "internalType": "address",
          "name": "approved",
          "type": "address"
        },
        {
          "indexed": true,
          "internalType": "uint256",
          "name": "tokenId",
          "type": "uint256"
        }
      ],
      "name": "Approval",
      "type": "event"
    },
    {
      "anonymous": false,
      "inputs": [
        {
          "indexed": true,
          "internalType": "address",
          "name": "owner",
          "type": "address"
        },
        {
          "indexed": true,
          "internalType": "address",
          "name": "operator",
          "type": "address"
        },
        {
          "indexed": false,
          "internalType": "bool",
          "name": "approved",
          "type": "bool"
        }
      ],
      "name": "ApprovalForAll",
      "type": "event"
    },
    {
      "anonymous": false,
      "inputs": [
        {
          "indexed": false,
          "internalType": "uint256",
          "name": "_fromTokenId",
          "type": "uint256"
        },
        {
          "indexed": false,
          "internalType": "uint256",
          "name": "_toTokenId",
          "type": "uint256"
        }
      ],
      "name": "BatchMetadataUpdate",
      "type": "event"
    },
    {
      "anonymous": false,
      "inputs": [
        {
          "indexed": true,
          "internalType": "address",
          "name": "to",
          "type": "address"
        },
        {
          "indexed": true,
          "internalType": "uint256",
          "name": "tokenId",
          "type": "uint256"
        },
        {
          "indexed": false,
          "internalType": "bytes32",
          "name": "vcHash",
          "type": "bytes32"
        },
        {
          "indexed": false,
          "internalType": "string",
          "name": "uri",
          "type": "string"
        }
      ],
      "name": "CredentialMinted",
      "type": "event"
    },
    {
      "anonymous": false,
      "inputs": [
        {
          "indexed": true,
          "internalType": "uint256",
          "name": "tokenId",
          "type": "uint256"
        }
      ],
      "name": "CredentialRevoked",
      "type": "event"
    },
    {
      "anonymous": false,
      "inputs": [
        {
          "indexed": true,
          "internalType": "uint256",
          "name": "tokenId",
          "type": "uint256"
        },
        {
          "indexed": false,
          "internalType": "bytes32",
          "name": "vcHash",
          "type": "bytes32"
        },
        {
          "indexed": false,
          "internalType": "string",
          "name": "uri",
          "type": "string"
        }
      ],
      "name": "CredentialUpdated",
      "type": "event"
    },
    {
      "anonymous": false,
      "inputs": [
        {
          "indexed": false,
          "internalType": "uint256",
          "name": "_tokenId",
          "type": "uint256"
        }
      ],
      "name": "MetadataUpdate",
      "type": "event"
    },
    {
      "anonymous": false,
      "inputs": [
        {
          "indexed": true,
          "internalType": "bytes32",
          "name": "role",
          "type": "bytes32"
        },
        {
          "indexed": true,
          "internalType": "bytes32",
          "name": "previousAdminRole",
          "type": "bytes32"
        },
        {
          "indexed": true,
          "internalType": "bytes32",
          "name": "newAdminRole",
          "type": "bytes32"
        }
      ],
      "name": "RoleAdminChanged",
      "type": "event"
    },
    {
      "anonymous": false,
      "inputs": [
        {
          "indexed": true,
          "internalType": "bytes32",
          "name": "role",
          "type": "bytes32"
        },
        {
          "indexed": true,
          "internalType": "address",
          "name": "account",
          "type": "address"
        },
        {
          "indexed": true,
          "internalType": "address",
          "name": "sender",
          "type": "address"
        }
      ],
      "name": "RoleGranted",
      "type": "event"
    },
    {
      "anonymous": false,
      "inputs": [
        {
          "indexed": true,
          "internalType": "bytes32",
          "name": "role",
          "type": "bytes32"
        },
        {
          "indexed": true,
          "internalType": "address",
          "name": "account",
          "type": "address"
        },
        {
          "indexed": true,
          "internalType": "address",
          "name": "sender",
          "type": "address"
        }
      ],
      "name": "RoleRevoked",
      "type": "event"
    },
    {
      "anonymous": false,
      "inputs": [
        {
          "indexed": true,
          "internalType": "address",
          "name": "from",
          "type": "address"
        },
        {
          "indexed": true,
          "internalType": "address",
          "name": "to",
          "type": "address"
        },
        {
          "indexed": true,
          "internalType": "uint256",
          "name": "tokenId",
          "type": "uint256"
        }
      ],
      "name": "Transfer",
      "type": "event"
    },
    {
      "inputs": [],
      "name": "ADMIN_ROLE",
      "outputs": [
        {
          "internalType": "bytes32",
          "name": "",
          "type": "bytes32"
        }
      ],
      "stateMutability": "view",
      "type": "function"
    },
    {
      "inputs": [],
      "name": "DEFAULT_ADMIN_ROLE",
      "outputs": [
        {
          "internalType": "bytes32",
          "name": "",
          "type": "bytes32"
        }
      ],
      "stateMutability": "view",
      "type": "function"
    },
    {
      "inputs": [],
      "name": "ISSUER_ROLE",
      "outputs": [
        {
          "internalType": "bytes32",
          "name": "",
          "type": "bytes32"
        }
      ],
      "stateMutability": "view",
      "type": "function"
    },
    {
      "inputs": [],
      "name": "PLATFORM_ROLE",
      "outputs": [
        {
          "internalType": "bytes32",
          "name": "",
          "type": "bytes32"
        }
      ],
      "stateMutability": "view",
      "type": "function"
    },
    {
      "inputs": [
        {
          "internalType": "address",
          "name": "to",
          "type": "address"
        },
        {
          "internalType": "uint256",
          "name": "tokenId",
          "type": "uint256"
        }
      ],
      "name": "approve",
      "outputs": [],
      "stateMutability": "nonpayable",
      "type": "function"
    },
    {
      "inputs": [
        {
          "internalType": "address",
          "name": "owner",
          "type": "address"
        }
      ],
      "name": "balanceOf",
      "outputs": [
        {
          "internalType": "uint256",
          "name": "",
          "type": "uint256"
        }
      ],
      "stateMutability": "view",
      "type": "function"
    },
    {
      "inputs": [
        {
          "internalType": "uint256",
          "name": "tokenId",
          "type": "uint256"
        }
      ],
      "name": "getApproved",
      "outputs": [
        {
          "internalType": "address",
          "name": "",
          "type": "address"
        }
      ],
      "stateMutability": "view",
      "type": "function"
    },
    {
      "inputs": [
        {
          "internalType": "bytes32",
          "name": "role",
          "type": "bytes32"
        }
      ],
      "name": "getRoleAdmin",
      "outputs": [
        {
          "internalType": "bytes32",
          "name": "",
          "type": "bytes32"
        }
      ],
      "stateMutability": "view",
      "type": "function"
    },
    {
      "inputs": [
        {
          "internalType": "uint256",
          "name": "tokenId",
          "type": "uint256"
        }
      ],
      "name": "getVcHash",
      "outputs": [
        {
          "internalType": "bytes32",
          "name": "",
          "type": "bytes32"
        }
      ],
      "stateMutability": "view",
      "type": "function"
    },
    {
      "inputs": [
        {
          "internalType": "bytes32",
          "name": "role",
          "type": "bytes32"
        },
        {
          "internalType": "address",
          "name": "account",
          "type": "address"
        }
      ],
      "name": "grantRole",
      "outputs": [],
      "stateMutability": "nonpayable",
      "type": "function"
    },
    {
      "inputs": [
        {
          "internalType": "bytes32",
          "name": "role",
          "type": "bytes32"
        },
        {
          "internalType": "address",
          "name": "account",
          "type": "address"
        }
      ],
      "name": "hasRole",
      "outputs": [
        {
          "internalType": "bool",
          "name": "",
          "type": "bool"
        }
      ],
      "stateMutability": "view",
      "type": "function"
    },
    {
      "inputs": [
        {
          "internalType": "address",
          "name": "owner",
          "type": "address"
        },
        {
          "internalType": "address",
          "name": "operator",
          "type": "address"
        }
      ],
      "name": "isApprovedForAll",
      "outputs": [
        {
          "internalType": "bool",
          "name": "",
          "type": "bool"
        }
      ],
      "stateMutability": "view",
      "type": "function"
    },
    {
      "inputs": [
        {
          "internalType": "address",
          "name": "to",
          "type": "address"
        },
        {
          "internalType": "bytes32",
          "name": "vcHash",
          "type": "bytes32"
        },
        {
          "internalType": "string",
          "name": "uri",
          "type": "string"
        },
        {
          "internalType": "bytes",
          "name": "signature",
          "type": "bytes"
        }
      ],
      "name": "mintCredential",
      "outputs": [
        {
          "internalType": "uint256",
          "name": "",
          "type": "uint256"
        }
      ],
      "stateMutability": "nonpayable",
      "type": "function"
    },
    {
      "inputs": [],
      "name": "name",
      "outputs": [
        {
          "internalType": "string",
          "name": "",
          "type": "string"
        }
      ],
      "stateMutability": "view",
      "type": "function"
    },
    {
      "inputs": [
        {
          "internalType": "uint256",
          "name": "tokenId",
          "type": "uint256"
        }
      ],
      "name": "ownerOf",
      "outputs": [
        {
          "internalType": "address",
          "name": "",
          "type": "address"
        }
      ],
      "stateMutability": "view",
      "type": "function"
    },
    {
      "inputs": [
        {
          "internalType": "bytes32",
          "name": "role",
          "type": "bytes32"
        },
        {
          "internalType": "address",
          "name": "callerConfirmation",
          "type": "address"
        }
      ],
      "name": "renounceRole",
      "outputs": [],
      "stateMutability": "nonpayable",
      "type": "function"
    },
    {
      "inputs": [
        {
          "internalType": "uint256",
          "name": "tokenId",
          "type": "uint256"
        }
      ],
      "name": "revokeCredential",
      "outputs": [],
      "stateMutability": "nonpayable",
      "type": "function"
    },
    {
      "inputs": [
        {
          "internalType": "bytes32",
          "name": "role",
          "type": "bytes32"
        },
        {
          "internalType": "address",
          "name": "account",
          "type": "address"
        }
      ],
      "name": "revokeRole",
      "outputs": [],
      "stateMutability": "nonpayable",
      "type": "function"
    },
    {
      "inputs": [
        {
          "internalType": "address",
          "name": "from",
          "type": "address"
        },
        {
          "internalType": "address",
          "name": "to",
          "type": "address"
        },
        {
          "internalType": "uint256",
          "name": "tokenId",
          "type": "uint256"
        }
      ],
      "name": "safeTransferFrom",
      "outputs": [],
      "stateMutability": "nonpayable",
      "type": "function"
    },
    {
      "inputs": [
        {
          "internalType": "address",
          "name": "from",
          "type": "address"
        },
        {
          "internalType": "address",
          "name": "to",
          "type": "address"
        },
        {
          "internalType": "uint256",
          "name": "tokenId",
          "type": "uint256"
        },
        {
          "internalType": "bytes",
          "name": "data",
          "type": "bytes"
        }
      ],
      "name": "safeTransferFrom",
      "outputs": [],
      "stateMutability": "nonpayable",
      "type": "function"
    },
    {
      "inputs": [
        {
          "internalType": "address",
          "name": "operator",
          "type": "address"
        },
        {
          "internalType": "bool",
          "name": "approved",
          "type": "bool"
        }
      ],
      "name": "setApprovalForAll",
      "outputs": [],
      "stateMutability": "nonpayable",
      "type": "function"
    },
    {
      "inputs": [
        {
          "internalType": "bytes4",
          "name": "id",
          "type": "bytes4"
        }
      ],
      "name": "supportsInterface",
      "outputs": [
        {
          "internalType": "bool",
          "name": "",
          "type": "bool"
        }
      ],
      "stateMutability": "view",
      "type": "function"
    },
    {
      "inputs": [],
      "name": "symbol",
      "outputs": [
        {
          "internalType": "string",
          "name": "",
          "type": "string"
        }
      ],
      "stateMutability": "view",
      "type": "function"
    },
    {
      "inputs": [
        {
          "internalType": "uint256",
          "name": "tokenId",
          "type": "uint256"
        }
      ],
      "name": "tokenURI",
      "outputs": [
        {
          "internalType": "string",
          "name": "",
          "type": "string"
        }
      ],
      "stateMutability": "view",
      "type": "function"
    },
    {
      "inputs": [
        {
          "internalType": "address",
          "name": "from",
          "type": "address"
        },
        {
          "internalType": "address",
          "name": "to",
          "type": "address"
        },
        {
          "internalType": "uint256",
          "name": "tokenId",
          "type": "uint256"
        }
      ],
      "name": "transferFrom",
      "outputs": [],
      "stateMutability": "nonpayable",
      "type": "function"
    },
    {
      "inputs": [
        {
          "internalType": "uint256",
          "name": "tokenId",
          "type": "uint256"
        },
        {
          "internalType": "bytes32",
          "name": "newVcHash",
          "type": "bytes32"
        },
        {
          "internalType": "string",
          "name": "newUri",
          "type": "string"
        }
      ],
      "name": "updateCredential",
      "outputs": [],
      "stateMutability": "nonpayable",
      "type": "function"
    }
  ],
  "bytecode": "0x608060405234801561001057600080fd5b506040516124db3803806124db83398101604081905261002f9161023c565b6040518060400160405280601581526020017f526976616c69646174652043726564656e7469616c0000000000000000000000815250604051806040016040528060078152602001661495931110d49160ca1b8152508160009081610094919061030d565b5060016100a1828261030d565b506100b191506000905082610141565b506100ca6000805160206124bb83398151915282610141565b506101037f114e74f6ea3bd819998f78687bfcb11b140da08e9b7d222fa9c1f1ba1f2aa1226000805160206124bb8339815191526101f1565b61013b7f797343f8d6a29aafeb3aaf0910a8973e0081c60c2f6c1f775cd9f76ea348fc1e6000805160206124bb8339815191526101f1565b506103cc565b60008281526007602090815260408083206001600160a01b038516845290915281205460ff166101e75760008381526007602090815260408083206001600160a01b03861684529091529020805460ff1916600117905561019f3390565b6001600160a01b0316826001600160a01b0316847f2f8788117e7eff1d82e926ec794901d17c78024a50270940304540a733656f0d60405160405180910390a45060016101eb565b5060005b92915050565b600082815260076020526040808220600101805490849055905190918391839186917fbd79b86ffe0ab8e8776151514217cd7cacd52c909f66475c3af44e129f0b00ff9190a4505050565b60006020828403121561024e57600080fd5b81516001600160a01b038116811461026557600080fd5b9392505050565b634e487b7160e01b600052604160045260246000fd5b600181811c9082168061029657607f821691505b6020821081036102b657634e487b7160e01b600052602260045260246000fd5b50919050565b601f821115610308576000816000526020600020601f850160051c810160208610156102e55750805b601f850160051c820191505b81811015610304578281556001016102f1565b5050505b505050565b81516001600160401b038111156103265761032661026c565b61033a816103348454610282565b846102bc565b602080601f83116001811461036f57600084156103575750858301515b600019600386901b1c1916600185901b178555610304565b600085815260208120601f198616915b8281101561039e5788860151825594840194600190910190840161037f565b50858210156103bc5787850151600019600388901b60f8161c191681555b5050505050600190811b01905550565b6120e0806103db6000396000f3fe608060405234801561001057600080fd5b506004361061018e5760003560e01c806370a08231116100de578063a22cb46511610097578063c87b56dd11610071578063c87b56dd14610398578063d547741f146103ab578063e985e9c5146103be578063f6600c29146103d157600080fd5b8063a22cb4651461035f578063afcfa8f614610372578063b88d4fde1461038557600080fd5b806370a08231146102ed57806375b238fc1461030057806382aefa241461032757806391d148541461033c57806395d89b411461034f578063a217fddf1461035757600080fd5b8063248a9ca31161014b57806336568abe1161012557806336568abe1461028d57806342842e0e146102a05780636352211e146102b357806370824c5c146102c657600080fd5b8063248a9ca3146102365780632acafae8146102675780632f2ff15d1461027a57600080fd5b806301ffc9a71461019357806306fdde03146101bb578063081812fc146101d0578063095ea7b3146101fb5780631b87278d1461021057806323b872dd14610223575b600080fd5b6101a66101a1366004611a35565b6103e4565b60405190151581526020015b60405180910390f35b6101c36103f5565b6040516101b29190611aa2565b6101e36101de366004611ab5565b610487565b6040516001600160a01b0390911681526020016101b2565b61020e610209366004611aea565b6104b0565b005b61020e61021e366004611ab5565b6104bf565b61020e610231366004611b14565b6105f8565b610259610244366004611ab5565b60009081526007602052604090206001015490565b6040519081526020016101b2565b61020e610275366004611b99565b610683565b61020e610288366004611bec565b6107dd565b61020e61029b366004611bec565b610802565b61020e6102ae366004611b14565b61083a565b6101e36102c1366004611ab5565b610855565b6102597f797343f8d6a29aafeb3aaf0910a8973e0081c60c2f6c1f775cd9f76ea348fc1e81565b6102596102fb366004611c18565b610860565b6102597fa49807205ce4d355092ef5a8a18f56e8913cf4a201fbe287825b095693c2177581565b61025960008051602061208b83398151915281565b6101a661034a366004611bec565b6108a8565b6101c36108d3565b610259600081565b61020e61036d366004611c33565b6108e2565b610259610380366004611c6f565b6108ed565b61020e610393366004611d0f565b610c54565b6101c36103a6366004611ab5565b610c6c565b61020e6103b9366004611bec565b610d7d565b6101a66103cc366004611deb565b610da2565b6102596103df366004611ab5565b610dd0565b60006103ef82610e17565b92915050565b60606000805461040490611e15565b80601f016020809104026020016040519081016040528092919081815260200182805461043090611e15565b801561047d5780601f106104525761010080835404028352916020019161047d565b820191906000526020600020905b81548152906001019060200180831161046057829003601f168201915b5050505050905090565b600061049282610e3c565b506000828152600460205260409020546001600160a01b03166103ef565b6104bb828233610e75565b5050565b6000818152600260205260409020546001600160a01b03166104fc5760405162461bcd60e51b81526004016104f390611e4f565b60405180910390fd5b6105267fa49807205ce4d355092ef5a8a18f56e8913cf4a201fbe287825b095693c21775336108a8565b80610544575061054460008051602061208b833981519152336108a8565b80610568575061055381610855565b6001600160a01b0316336001600160a01b0316145b6105b45760405162461bcd60e51b815260206004820152601a60248201527f43726564656e7469616c3a206e6f7420617574686f726973656400000000000060448201526064016104f3565b6105bd81610e82565b6000818152600960205260408082208290555182917f0d47d5695004d2a4180ebb40037756439184993a0d1c6d4a8ff3a6aa9325607491a250565b6001600160a01b03821661062257604051633250574960e11b8152600060048201526024016104f3565b600061062f838333610ebd565b9050836001600160a01b0316816001600160a01b03161461067d576040516364283d7b60e01b81526001600160a01b03808616600483015260248201849052821660448201526064016104f3565b50505050565b6000848152600260205260409020546001600160a01b03166106b75760405162461bcd60e51b81526004016104f390611e4f565b6106e17fa49807205ce4d355092ef5a8a18f56e8913cf4a201fbe287825b095693c21775336108a8565b806106ff57506106ff60008051602061208b833981519152336108a8565b61074b5760405162461bcd60e51b815260206004820152601a60248201527f43726564656e7469616c3a206e6f7420617574686f726973656400000000000060448201526064016104f3565b6000848152600960209081526040918290208590558151601f840182900482028101820190925282825261079b9186918590859081908401838280828437600092019190915250610fb692505050565b837ff8299908a81ffcd8766a4334de7c2c51817276f0af0c1efed877a6fbdab4e31d8484846040516107cf93929190611e86565b60405180910390a250505050565b6000828152600760205260409020600101546107f881611006565b61067d8383611013565b6001600160a01b038116331461082b5760405163334bd91960e11b815260040160405180910390fd5b61083582826110a7565b505050565b61083583838360405180602001604052806000815250610c54565b60006103ef82610e3c565b60006001600160a01b03821661088c576040516322718ad960e21b8152600060048201526024016104f3565b506001600160a01b031660009081526003602052604090205490565b60009182526007602090815260408084206001600160a01b0393909316845291905290205460ff1690565b60606001805461040490611e15565b6104bb338383611114565b60008061090860008051602061208b833981519152336108a8565b8061093857506109387f797343f8d6a29aafeb3aaf0910a8973e0081c60c2f6c1f775cd9f76ea348fc1e336108a8565b905080610b05576041831461098f5760405162461bcd60e51b815260206004820152601e60248201527f43726564656e7469616c3a207369676e6174757265207265717569726564000060448201526064016104f3565b6000610a286109d58a8a8a8a8080601f0160208091040260200160405190810160405280939291908181526020018383808284376000920191909152506111b392505050565b6040517f19457468657265756d205369676e6564204d6573736167653a0a3332000000006020820152603c8101829052600090605c01604051602081830303815290604052805190602001209050919050565b90506000610a6c8287878080601f01602080910402602001604051908101604052809392919081815260200183838082843760009201919091525061120392505050565b9050610a8660008051602061208b833981519152826108a8565b80610ab65750610ab67f797343f8d6a29aafeb3aaf0910a8973e0081c60c2f6c1f775cd9f76ea348fc1e826108a8565b610b025760405162461bcd60e51b815260206004820152601a60248201527f43726564656e7469616c3a20696e76616c6964207369676e657200000000000060448201526064016104f3565b50505b6000878152600a602052604090205460ff1615610b645760405162461bcd60e51b815260206004820152601f60248201527f43726564656e7469616c3a20564320616c726561647920616e63686f7265640060448201526064016104f3565b6000878152600a60205260408120805460ff19166001179055600880549082610b8c83611ebc565b919050559050610b9c898261122d565b8515610be257610be28188888080601f016020809104026020016040519081016040528093929190818152602001838380828437600092019190915250610fb692505050565b60408051602080820183528a825260008481526009909152829020905190555181906001600160a01b038b16907f51acb4530b90aecd9ccc6ab9a406b94edf1c0aad54aa134d716a166ea97c1fb890610c40908c908c908c90611e86565b60405180910390a398975050505050505050565b610c5f8484846105f8565b61067d3385858585611247565b6060610c7782610e3c565b5060008281526006602052604081208054610c9190611e15565b80601f0160208091040260200160405190810160405280929190818152602001828054610cbd90611e15565b8015610d0a5780601f10610cdf57610100808354040283529160200191610d0a565b820191906000526020600020905b815481529060010190602001808311610ced57829003601f168201915b505050505090506000610d2860408051602081019091526000815290565b90508051600003610d3a575092915050565b815115610d6c578082604051602001610d54929190611ee3565b60405160208183030381529060405292505050919050565b610d7584611372565b949350505050565b600082815260076020526040902060010154610d9881611006565b61067d83836110a7565b6001600160a01b03918216600090815260056020908152604080832093909416825291909152205460ff1690565b6000818152600260205260408120546001600160a01b0316610e045760405162461bcd60e51b81526004016104f390611e4f565b5060009081526009602052604090205490565b60006001600160e01b03198216637965db0b60e01b14806103ef57506103ef826113e7565b6000818152600260205260408120546001600160a01b0316806103ef57604051637e27328960e01b8152600481018490526024016104f3565b610835838383600161140c565b6000610e916000836000610ebd565b90506001600160a01b0381166104bb57604051637e27328960e01b8152600481018390526024016104f3565b6000828152600260205260408120546001600160a01b0390811690831615610eea57610eea818486611512565b6001600160a01b03811615610f2857610f0760008560008061140c565b6001600160a01b038116600090815260036020526040902080546000190190555b6001600160a01b03851615610f57576001600160a01b0385166000908152600360205260409020805460010190555b60008481526002602052604080822080546001600160a01b0319166001600160a01b0389811691821790925591518793918516917fddf252ad1be2c89b69c2b068fc378daa952ba7f163c4a11628f55a4df523b3ef91a4949350505050565b6000828152600660205260409020610fce8282611f5a565b506040518281527ff8e1a15aba9398e019f0b49df1a4fde98ee17ae345cb5f6b5e2c27f5033e8ce79060200160405180910390a15050565b6110108133611576565b50565b600061101f83836108a8565b61109f5760008381526007602090815260408083206001600160a01b03861684529091529020805460ff191660011790556110573390565b6001600160a01b0316826001600160a01b0316847f2f8788117e7eff1d82e926ec794901d17c78024a50270940304540a733656f0d60405160405180910390a45060016103ef565b5060006103ef565b60006110b383836108a8565b1561109f5760008381526007602090815260408083206001600160a01b0386168085529252808320805460ff1916905551339286917ff6391f5c32d9c69d2a47ea670b442974b53935d1edc7fd64eb21e047a839171b9190a45060016103ef565b6001600160a01b03821661114657604051630b61174360e31b81526001600160a01b03831660048201526024016104f3565b6001600160a01b03838116600081815260056020908152604080832094871680845294825291829020805460ff191686151590811790915591519182527f17307eab39ab6107e8899845ad3d59bd9653f200f220920489ca2b5937696c31910160405180910390a3505050565b80516020918201206040805160609590951b6bffffffffffffffffffffffff1916858401526034850193909352605480850191909152825180850390910181526074909301909152815191012090565b60008060008061121386866115af565b92509250925061122382826115fc565b5090949350505050565b6104bb8282604051806020016040528060008152506116b5565b6001600160a01b0383163b1561136b57604051630a85bd0160e11b81526001600160a01b0384169063150b7a029061128990889088908790879060040161201a565b6020604051808303816000875af19250505080156112c4575060408051601f3d908101601f191682019092526112c191810190612057565b60015b61132d573d8080156112f2576040519150601f19603f3d011682016040523d82523d6000602084013e6112f7565b606091505b50805160000361132557604051633250574960e11b81526001600160a01b03851660048201526024016104f3565b805181602001fd5b6001600160e01b03198116630a85bd0160e11b1461136957604051633250574960e11b81526001600160a01b03851660048201526024016104f3565b505b5050505050565b606061137d82610e3c565b50600061139560408051602081019091526000815290565b905060008151116113b557604051806020016040528060008152506113e0565b806113bf846116cd565b6040516020016113d0929190611ee3565b6040516020818303038152906040525b9392505050565b60006001600160e01b03198216632483248360e11b14806103ef57506103ef82611760565b808061142057506001600160a01b03821615155b156114e257600061143084610e3c565b90506001600160a01b0383161580159061145c5750826001600160a01b0316816001600160a01b031614155b801561146f575061146d8184610da2565b155b156114985760405163a9fbf51f60e01b81526001600160a01b03841660048201526024016104f3565b81156114e05783856001600160a01b0316826001600160a01b03167f8c5be1e5ebec7d5bd14f71427d1e84f3dd0314c0f7b2291e5b200ac8c7c3b92560405160405180910390a45b505b5050600090815260046020526040902080546001600160a01b0319166001600160a01b0392909216919091179055565b61151d8383836117b0565b610835576001600160a01b03831661154b57604051637e27328960e01b8152600481018290526024016104f3565b60405163177e802f60e01b81526001600160a01b0383166004820152602481018290526044016104f3565b61158082826108a8565b6104bb5760405163e2517d3f60e01b81526001600160a01b0382166004820152602481018390526044016104f3565b600080600083516041036115e95760208401516040850151606086015160001a6115db88828585611813565b9550955095505050506115f5565b50508151600091506002905b9250925092565b600082600381111561161057611610612074565b03611619575050565b600182600381111561162d5761162d612074565b0361164b5760405163f645eedf60e01b815260040160405180910390fd5b600282600381111561165f5761165f612074565b036116805760405163fce698f760e01b8152600481018290526024016104f3565b600382600381111561169457611694612074565b036104bb576040516335e2f38360e21b8152600481018290526024016104f3565b6116bf83836118e2565b610835336000858585611247565b606060006116da83611947565b600101905060008167ffffffffffffffff8111156116fa576116fa611cf9565b6040519080825280601f01601f191660200182016040528015611724576020820181803683370190505b5090508181016020015b600019016f181899199a1a9b1b9c1cb0b131b232b360811b600a86061a8153600a850494508461172e57509392505050565b60006001600160e01b031982166380ac58cd60e01b148061179157506001600160e01b03198216635b5e139f60e01b145b806103ef57506301ffc9a760e01b6001600160e01b03198316146103ef565b60006001600160a01b03831615801590610d755750826001600160a01b0316846001600160a01b031614806117ea57506117ea8484610da2565b80610d755750506000908152600460205260409020546001600160a01b03908116911614919050565b600080807f7fffffffffffffffffffffffffffffff5d576e7357a4501ddfe92f46681b20a084111561184e57506000915060039050826118d8565b604080516000808252602082018084528a905260ff891692820192909252606081018790526080810186905260019060a0016020604051602081039080840390855afa1580156118a2573d6000803e3d6000fd5b5050604051601f1901519150506001600160a01b0381166118ce575060009250600191508290506118d8565b9250600091508190505b9450945094915050565b6001600160a01b03821661190c57604051633250574960e11b8152600060048201526024016104f3565b600061191a83836000610ebd565b90506001600160a01b03811615610835576040516339e3563760e11b8152600060048201526024016104f3565b60008072184f03e93ff9f4daa797ed6e38ed64bf6a1f0160401b83106119865772184f03e93ff9f4daa797ed6e38ed64bf6a1f0160401b830492506040015b6d04ee2d6d415b85acef810000000083106119b2576d04ee2d6d415b85acef8100000000830492506020015b662386f26fc1000083106119d057662386f26fc10000830492506010015b6305f5e10083106119e8576305f5e100830492506008015b61271083106119fc57612710830492506004015b60648310611a0e576064830492506002015b600a83106103ef5760010192915050565b6001600160e01b03198116811461101057600080fd5b600060208284031215611a4757600080fd5b81356113e081611a1f565b60005b83811015611a6d578181015183820152602001611a55565b50506000910152565b60008151808452611a8e816020860160208601611a52565b601f01601f19169290920160200192915050565b6020815260006113e06020830184611a76565b600060208284031215611ac757600080fd5b5035919050565b80356001600160a01b0381168114611ae557600080fd5b919050565b60008060408385031215611afd57600080fd5b611b0683611ace565b946020939093013593505050565b600080600060608486031215611b2957600080fd5b611b3284611ace565b9250611b4060208501611ace565b9150604084013590509250925092565b60008083601f840112611b6257600080fd5b50813567ffffffffffffffff811115611b7a57600080fd5b602083019150836020828501011115611b9257600080fd5b9250929050565b60008060008060608587031215611baf57600080fd5b8435935060208501359250604085013567ffffffffffffffff811115611bd457600080fd5b611be087828801611b50565b95989497509550505050565b60008060408385031215611bff57600080fd5b82359150611c0f60208401611ace565b90509250929050565b600060208284031215611c2a57600080fd5b6113e082611ace565b60008060408385031215611c4657600080fd5b611c4f83611ace565b915060208301358015158114611c6457600080fd5b809150509250929050565b60008060008060008060808789031215611c8857600080fd5b611c9187611ace565b955060208701359450604087013567ffffffffffffffff80821115611cb557600080fd5b611cc18a838b01611b50565b90965094506060890135915080821115611cda57600080fd5b50611ce789828a01611b50565b979a9699509497509295939492505050565b634e487b7160e01b600052604160045260246000fd5b60008060008060808587031215611d2557600080fd5b611d2e85611ace565b9350611d3c60208601611ace565b925060408501359150606085013567ffffffffffffffff80821115611d6057600080fd5b818701915087601f830112611d7457600080fd5b813581811115611d8657611d86611cf9565b604051601f8201601f19908116603f01168101908382118183101715611dae57611dae611cf9565b816040528281528a6020848701011115611dc757600080fd5b82602086016020830137600060208483010152809550505050505092959194509250565b60008060408385031215611dfe57600080fd5b611e0783611ace565b9150611c0f60208401611ace565b600181811c90821680611e2957607f821691505b602082108103611e4957634e487b7160e01b600052602260045260246000fd5b50919050565b60208082526017908201527f43726564656e7469616c3a206e6f6e6578697374656e74000000000000000000604082015260600190565b83815260406020820152816040820152818360608301376000818301606090810191909152601f909201601f1916010192915050565b600060018201611edc57634e487b7160e01b600052601160045260246000fd5b5060010190565b60008351611ef5818460208801611a52565b835190830190611f09818360208801611a52565b01949350505050565b601f821115610835576000816000526020600020601f850160051c81016020861015611f3b5750805b601f850160051c820191505b8181101561136957828155600101611f47565b815167ffffffffffffffff811115611f7457611f74611cf9565b611f8881611f828454611e15565b84611f12565b602080601f831160018114611fbd5760008415611fa55750858301515b600019600386901b1c1916600185901b178555611369565b600085815260208120601f198616915b82811015611fec57888601518255948401946001909101908401611fcd565b508582101561200a5787850151600019600388901b60f8161c191681555b5050505050600190811b01905550565b6001600160a01b038581168252841660208201526040810183905260806060820181905260009061204d90830184611a76565b9695505050505050565b60006020828403121561206957600080fd5b81516113e081611a1f565b634e487b7160e01b600052602160045260246000fdfe114e74f6ea3bd819998f78687bfcb11b140da08e9b7d222fa9c1f1ba1f2aa122a2646970667358221220c057262903ba83e13d849da632dd8fc4b5247ad48ba3a393f4ee58c1b871b50764736f6c63430008190033a49807205ce4d355092ef5a8a18f56e8913cf4a201fbe287825b095693c21775",
  "linkReferences": {},
  "deployedLinkReferences": {}
}