{
  "_format": "hh-sol-artifact-1",
  "contractName": "DIDRegistry",
  "sourceName": "contracts/DIDRegistry.sol",
  "abi": [
    {
      "inputs": [
        {
          "internalType": "address",
          "name": "admin",
          "type": "address"
        }
      ],
      "stateMutability": "nonpayable",
      "type": "constructor"
    },
    {
      "inputs": [],
      "name": "AccessControlBadConfirmation",
      "type": "error"
    },
    {
      "inputs": [
        {
          "internalType": "address",
          "name": "account",
          "type": "address"
        },
        {
          "internalType": "bytes32",
          "name": "neededRole",
          "type": "bytes32"
        }
      ],
      "name": "AccessControlUnauthorizedAccount",
      "type": "error"
    },
    {
      "inputs": [
        {
          "internalType": "uint256",
          "name": "value",
          "type": "uint256"
        },
        {
          "internalType": "uint256",
          "name": "length",
          "type": "uint256"
        }
      ],
      "name": "StringsInsufficientHexLength",
      "type": "error"
    },
    {
      "anonymous": false,
      "inputs": [
        {
          "indexed": true,
          "internalType": "address",
          "name": "owner",
          "type": "address"
        },
        {
          "indexed": false,
          "internalType": "string",
          "name": "did",
          "type": "string"
        },
        {
          "indexed": false,
          "internalType": "bytes32",
          "name": "docHash",
          "type": "bytes32"
        }
      ],
      "name": "DIDCreated",
      "type": "event"
    },
    {
      "anonymous": false,
      "inputs": [
        {
          "indexed": true,
          "internalType": "string",
          "name": "did",
          "type": "string"
        },
        {
          "indexed": false,
          "internalType": "string",
          "name": "uri",
          "type": "string"
        },
        {
          "indexed": false,
          "internalType": "bytes32",
          "name": "docHash",
          "type": "bytes32"
        }
      ],
      "name": "DIDDocumentUpdated",
      "type": "event"
    },
    {
      "anonymous": false,
      "inputs": [
        {
          "indexed": true,
          "internalType": "bytes32",
          "name": "role",
          "type": "bytes32"
        },
        {
          "indexed": true,
          "internalType": "bytes32",
          "name": "previousAdminRole",
          "type": "bytes32"
        },
        {
          "indexed": true,
          "internalType": "bytes32",
          "name": "newAdminRole",
          "type": "bytes32"
        }
      ],
      "name": "RoleAdminChanged",
      "type": "event"
    },
    {
      "anonymous": false,
      "inputs": [
        {
          "indexed": true,
          "internalType": "bytes32",
          "name": "role",
          "type": "bytes32"
        },
        {
          "indexed": true,
          "internalType": "address",
          "name": "account",
          "type": "address"
        },
        {
          "indexed": true,
          "internalType": "address",
          "name": "sender",
          "type": "address"
        }
      ],
      "name": "RoleGranted",
      "type": "event"
    },
    {
      "anonymous": false,
      "inputs": [
        {
          "indexed": true,
          "internalType": "bytes32",
          "name": "role",
          "type": "bytes32"
        },
        {
          "indexed": true,
          "internalType": "address",
          "name": "account",
          "type": "address"
        },
        {
          "indexed": true,
          "internalType": "address",
          "name": "sender",
          "type": "address"
        }
      ],
      "name": "RoleRevoked",
      "type": "event"
    },
    {
      "inputs": [],
      "name": "ADMIN_ROLE",
      "outputs": [
        {
          "internalType": "bytes32",
          "name": "",
          "type": "bytes32"
        }
      ],
      "stateMutability": "view",
      "type": "function"
    },
    {
      "inputs": [],
      "name": "AGENT_ROLE",
      "outputs": [
        {
          "internalType": "bytes32",
          "name": "",
          "type": "bytes32"
        }
      ],
      "stateMutability": "view",
      "type": "function"
    },
    {
      "inputs": [],
      "name": "DEFAULT_ADMIN_ROLE",
      "outputs": [
        {
          "internalType": "bytes32",
          "name": "",
          "type": "bytes32"
        }
      ],
      "stateMutability": "view",
      "type": "function"
    },
    {
      "inputs": [
        {
          "internalType": "address",
          "name": "owner",
          "type": "address"
        },
        {
          "internalType": "bytes32",
          "name": "docHash",
          "type": "bytes32"
        }
      ],
      "name": "adminCreateDID",
      "outputs": [],
      "stateMutability": "nonpayable",
      "type": "function"
    },
    {
      "inputs": [
        {
          "internalType": "address",
          "name": "owner",
          "type": "address"
        },
        {
          "internalType": "string",
          "name": "uri",
          "type": "string"
        },
        {
          "internalType": "bytes32",
          "name": "hash",
          "type": "bytes32"
        }
      ],
      "name": "adminSetDocument",
      "outputs": [],
      "stateMutability": "nonpayable",
      "type": "function"
    },
    {
      "inputs": [
        {
          "internalType": "bytes32",
          "name": "docHash",
          "type": "bytes32"
        }
      ],
      "name": "createDID",
      "outputs": [],
      "stateMutability": "nonpayable",
      "type": "function"
    },
    {
      "inputs": [
        {
          "internalType": "address",
          "name": "",
          "type": "address"
        }
      ],
      "name": "didOf",
      "outputs": [
        {
          "internalType": "string",
          "name": "",
          "type": "string"
        }
      ],
      "stateMutability": "view",
      "type": "function"
    },
    {
      "inputs": [
        {
          "internalType": "string",
          "name": "",
          "type": "string"
        }
      ],
      "name": "documentOf",
      "outputs": [
        {
          "internalType": "string",
          "name": "uri",
          "type": "string"
        },
        {
          "internalType": "bytes32",
          "name": "docHash",
          "type": "bytes32"
        }
      ],
      "stateMutability": "view",
      "type": "function"
    },
    {
      "inputs": [
        {
          "internalType": "bytes32",
          "name": "role",
          "type": "bytes32"
        }
      ],
      "name": "getRoleAdmin",
      "outputs": [
        {
          "internalType": "bytes32",
          "name": "",
          "type": "bytes32"
        }
      ],
      "stateMutability": "view",
      "type": "function"
    },
    {
      "inputs": [
        {
          "internalType": "bytes32",
          "name": "role",
          "type": "bytes32"
        },
        {
          "internalType": "uint256",
          "name": "index",
          "type": "uint256"
        }
      ],
      "name": "getRoleMember",
      "outputs": [
        {
          "internalType": "address",
          "name": "",
          "type": "address"
        }
      ],
      "stateMutability": "view",
      "type": "function"
    },
    {
      "inputs": [
        {
          "internalType": "bytes32",
          "name": "role",
          "type": "bytes32"
        }
      ],
      "name": "getRoleMemberCount",
      "outputs": [
        {
          "internalType": "uint256",
          "name": "",
          "type": "uint256"
        }
      ],
      "stateMutability": "view",
      "type": "function"
    },
    {
      "inputs": [
        {
          "internalType": "bytes32",
          "name": "role",
          "type": "bytes32"
        }
      ],
      "name": "getRoleMembers",
      "outputs": [
        {
          "internalType": "address[]",
          "name": "",
          "type": "address[]"
        }
      ],
      "stateMutability": "view",
      "type": "function"
    },
    {
      "inputs": [
        {
          "internalType": "bytes32",
          "name": "role",
          "type": "bytes32"
        },
        {
          "internalType": "address",
          "name": "account",
          "type": "address"
        }
      ],
      "name": "grantRole",
      "outputs": [],
      "stateMutability": "nonpayable",
      "type": "function"
    },
    {
      "inputs": [
        {
          "internalType": "address",
          "name": "owner",
          "type": "address"
        }
      ],
      "name": "hasDID",
      "outputs": [
        {
          "internalType": "bool",
          "name": "",
          "type": "bool"
        }
      ],
      "stateMutability": "view",
      "type": "function"
    },
    {
      "inputs": [
        {
          "internalType": "bytes32",
          "name": "role",
          "type": "bytes32"
        },
        {
          "internalType": "address",
          "name": "account",
          "type": "address"
        }
      ],
      "name": "hasRole",
      "outputs": [
        {
          "internalType": "bool",
          "name": "",
          "type": "bool"
        }
      ],
      "stateMutability": "view",
      "type": "function"
    },
    {
      "inputs": [
        {
          "internalType": "bytes32",
          "name": "role",
          "type": "bytes32"
        },
        {
          "internalType": "address",
          "name": "callerConfirmation",
          "type": "address"
        }
      ],
      "name": "renounceRole",
      "outputs": [],
      "stateMutability": "nonpayable",
      "type": "function"
    },
    {
      "inputs": [
        {
          "internalType": "bytes32",
          "name": "role",
          "type": "bytes32"
        },
        {
          "internalType": "address",
          "name": "account",
          "type": "address"
        }
      ],
      "name": "revokeRole",
      "outputs": [],
      "stateMutability": "nonpayable",
      "type": "function"
    },
    {
      "inputs": [
        {
          "internalType": "string",
          "name": "uri",
          "type": "string"
        },
        {
          "internalType": "bytes32",
          "name": "hash",
          "type": "bytes32"
        }
      ],
      "name": "setDocument",
      "outputs": [],
      "stateMutability": "nonpayable",
      "type": "function"
    },
    {
      "inputs": [
        {
          "internalType": "bytes4",
          "name": "id",
          "type": "bytes4"
        }
      ],
      "name": "supportsInterface",
      "outputs": [
        {
          "internalType": "bool",
          "name": "",
          "type": "bool"
        }
      ],
      "stateMutability": "view",
      "type": "function"
    }
  ],
  "bytecode": "0x608060405234801561001057600080fd5b50604051611b8f380380611b8f83398101604081905261002f91610257565b3361003b6000836100d3565b50610054600080516020611b6f833981519152836100d3565b50816001600160a01b0316816001600160a01b031614610094576100796000826100d3565b50610092600080516020611b6f833981519152826100d3565b505b6100cc7fcab5a0bfe0b79d2c4b1c2e02599fa044d115b7511f9659307cb4276950967709600080516020611b6f83398151915261010b565b5050610280565b6000806100e08484610156565b905080156101025760008481526001602052604090206101009084610200565b505b90505b92915050565b600082815260208190526040808220600101805490849055905190918391839186917fbd79b86ffe0ab8e8776151514217cd7cacd52c909f66475c3af44e129f0b00ff9190a4505050565b6000828152602081815260408083206001600160a01b038516845290915281205460ff166101f8576000838152602081815260408083206001600160a01b03861684529091529020805460ff191660011790556101b03390565b6001600160a01b0316826001600160a01b0316847f2f8788117e7eff1d82e926ec794901d17c78024a50270940304540a733656f0d60405160405180910390a4506001610105565b506000610105565b6000610102836001600160a01b03841660008181526001830160205260408120546101f857508154600181810184556000848152602080822090930184905584548482528286019093526040902091909155610105565b60006020828403121561026957600080fd5b81516001600160a01b038116811461010257600080fd5b6118e08061028f6000396000f3fe608060405234801561001057600080fd5b50600436106101215760003560e01c806375b238fc116100ad578063a3246ad311610071578063a3246ad3146102a7578063b66103bb146102c7578063ca15c873146102e8578063d0f4b30a146102fb578063d547741f1461030e57600080fd5b806375b238fc146102275780639010d07c1461024e57806391d1485414610279578063945ffb0e1461028c578063a217fddf1461029f57600080fd5b8063364c707b116100f4578063364c707b146101bb57806336568abe146101db5780633c303d67146101ee578063604d10bf1461020157806374a38fb11461021457600080fd5b806301ffc9a71461012657806322459e181461014e578063248a9ca3146101835780632f2ff15d146101a6575b600080fd5b6101396101343660046112ca565b610321565b60405190151581526020015b60405180910390f35b6101757fcab5a0bfe0b79d2c4b1c2e02599fa044d115b7511f9659307cb427695096770981565b604051908152602001610145565b6101756101913660046112f4565b60009081526020819052604090206001015490565b6101b96101b4366004611329565b61034c565b005b6101ce6101c9366004611355565b610377565b60405161014591906113c0565b6101b96101e9366004611329565b610411565b6101b96101fc36600461141c565b610449565b6101b961020f366004611468565b6105f9565b6101b96102223660046114c2565b61084f565b6101757fa49807205ce4d355092ef5a8a18f56e8913cf4a201fbe287825b095693c2177581565b61026161025c3660046114ec565b610a62565b6040516001600160a01b039091168152602001610145565b610139610287366004611329565b610a81565b6101b961029a3660046112f4565b610aaa565b610175600081565b6102ba6102b53660046112f4565b610bcd565b604051610145919061150e565b6102da6102d5366004611571565b610be7565b604051610145929190611622565b6101756102f63660046112f4565b610c96565b610139610309366004611355565b610cad565b6101b961031c366004611329565b610cd9565b60006001600160e01b031982166301ffc9a760e01b1480610346575061034682610cfe565b92915050565b60008281526020819052604090206001015461036781610d23565b6103718383610d30565b50505050565b6002602052600090815260409020805461039090611644565b80601f01602080910402602001604051908101604052809291908181526020018280546103bc90611644565b80156104095780601f106103de57610100808354040283529160200191610409565b820191906000526020600020905b8154815290600101906020018083116103ec57829003601f168201915b505050505081565b6001600160a01b038116331461043a5760405163334bd91960e11b815260040160405180910390fd5b6104448282610d65565b505050565b336000908152600260205260408120805461046390611644565b80601f016020809104026020016040519081016040528092919081815260200182805461048f90611644565b80156104dc5780601f106104b1576101008083540402835291602001916104dc565b820191906000526020600020905b8154815290600101906020018083116104bf57829003601f168201915b5050505050905080516000036105225760405162461bcd60e51b8152602060048201526006602482015265139bc811125160d21b60448201526064015b60405180910390fd5b6040805160606020601f8701819004028201810183529181018581529091829190879087908190850183828082843760009201919091525050509082525060200183905260405160039061057790849061167e565b9081526040519081900360200190208151819061059490826116ea565b5060208201518160010155905050806040516105b0919061167e565b60405180910390207f4cb8f6c4c4d6be94e7161c7f911653d2ba3b85dd28eccfd6b91f11055c2c26258585856040516105eb939291906117aa565b60405180910390a250505050565b6106237fa49807205ce4d355092ef5a8a18f56e8913cf4a201fbe287825b095693c2177533610a81565b8061065357506106537fcab5a0bfe0b79d2c4b1c2e02599fa044d115b7511f9659307cb427695096770933610a81565b6106905760405162461bcd60e51b815260206004820152600e60248201526d139bdd08185d5d1a1bdc9a5cd95960921b6044820152606401610519565b6001600160a01b038416600090815260026020526040812080546106b390611644565b80601f01602080910402602001604051908101604052809291908181526020018280546106df90611644565b801561072c5780601f106107015761010080835404028352916020019161072c565b820191906000526020600020905b81548152906001019060200180831161070f57829003601f168201915b5050505050905080516000036107775760405162461bcd60e51b815260206004820152601060248201526f13dddb995c881a185cc81b9bc811125160821b6044820152606401610519565b6040805160606020601f870181900402820181018352918101858152909182919087908790819085018382808284376000920191909152505050908252506020018390526040516003906107cc90849061167e565b908152604051908190036020019020815181906107e990826116ea565b506020820151816001015590505080604051610805919061167e565b60405180910390207f4cb8f6c4c4d6be94e7161c7f911653d2ba3b85dd28eccfd6b91f11055c2c2625858585604051610840939291906117aa565b60405180910390a25050505050565b6108797fa49807205ce4d355092ef5a8a18f56e8913cf4a201fbe287825b095693c2177533610a81565b806108a957506108a97fcab5a0bfe0b79d2c4b1c2e02599fa044d115b7511f9659307cb427695096770933610a81565b6108e65760405162461bcd60e51b815260206004820152600e60248201526d139bdd08185d5d1a1bdc9a5cd95960921b6044820152606401610519565b6001600160a01b03821661092c5760405162461bcd60e51b815260206004820152600d60248201526c4f776e6572206973207a65726f60981b6044820152606401610519565b6001600160a01b0382166000908152600260205260409020805461094f90611644565b1590506109935760405162461bcd60e51b815260206004820152601260248201527144494420616c72656164792065786973747360701b6044820152606401610519565b600061099e83610d92565b6001600160a01b03841660009081526002602052604090209091506109c382826116ea565b5060408051606081018252600081830190815281526020810184905290516003906109ef90849061167e565b90815260405190819003602001902081518190610a0c90826116ea565b5060208201518160010155905050826001600160a01b03167fa3669e30eda7f2117f40d98fcd3ab3e5564dfe936d3cd5ae68878bba65020eef8284604051610a55929190611622565b60405180910390a2505050565b6000828152600160205260408120610a7a9083610dce565b9392505050565b6000918252602082815260408084206001600160a01b0393909316845291905290205460ff1690565b3360009081526002602052604090208054610ac490611644565b159050610b085760405162461bcd60e51b815260206004820152601260248201527144494420616c72656164792065786973747360701b6044820152606401610519565b6000610b1333610d92565b336000908152600260205260409020909150610b2f82826116ea565b506040805160608101825260008183019081528152602081018490529051600390610b5b90849061167e565b90815260405190819003602001902081518190610b7890826116ea565b5060208201518160010155905050336001600160a01b03167fa3669e30eda7f2117f40d98fcd3ab3e5564dfe936d3cd5ae68878bba65020eef8284604051610bc1929190611622565b60405180910390a25050565b600081815260016020526040902060609061034690610dda565b8051602081830181018051600382529282019190930120915280548190610c0d90611644565b80601f0160208091040260200160405190810160405280929190818152602001828054610c3990611644565b8015610c865780601f10610c5b57610100808354040283529160200191610c86565b820191906000526020600020905b815481529060010190602001808311610c6957829003601f168201915b5050505050908060010154905082565b600081815260016020526040812061034690610de7565b6001600160a01b03811660009081526002602052604081208054610cd090611644565b15159392505050565b600082815260208190526040902060010154610cf481610d23565b6103718383610d65565b60006001600160e01b03198216635a05180f60e01b1480610346575061034682610df1565b610d2d8133610e26565b50565b600080610d3d8484610e63565b90508015610a7a576000848152600160205260409020610d5d9084610ef5565b509392505050565b600080610d728484610f0a565b90508015610a7a576000848152600160205260409020610d5d9084610f75565b6060610da8826001600160a01b03166014610f8a565b604051602001610db891906117e3565b6040516020818303038152906040529050919050565b6000610a7a838361110a565b60606000610a7a83611134565b6000610346825490565b60006001600160e01b03198216637965db0b60e01b148061034657506301ffc9a760e01b6001600160e01b0319831614610346565b610e308282610a81565b610e5f5760405163e2517d3f60e01b81526001600160a01b038216600482015260248101839052604401610519565b5050565b6000610e6f8383610a81565b610eed576000838152602081815260408083206001600160a01b03861684529091529020805460ff19166001179055610ea53390565b6001600160a01b0316826001600160a01b0316847f2f8788117e7eff1d82e926ec794901d17c78024a50270940304540a733656f0d60405160405180910390a4506001610346565b506000610346565b6000610a7a836001600160a01b038416611190565b6000610f168383610a81565b15610eed576000838152602081815260408083206001600160a01b0386168085529252808320805460ff1916905551339286917ff6391f5c32d9c69d2a47ea670b442974b53935d1edc7fd64eb21e047a839171b9190a4506001610346565b6000610a7a836001600160a01b0384166111d7565b6060826000610f9a84600261182a565b610fa5906002611841565b67ffffffffffffffff811115610fbd57610fbd61155b565b6040519080825280601f01601f191660200182016040528015610fe7576020820181803683370190505b509050600360fc1b8160008151811061100257611002611854565b60200101906001600160f81b031916908160001a905350600f60fb1b8160018151811061103157611031611854565b60200101906001600160f81b031916908160001a905350600061105585600261182a565b611060906001611841565b90505b60018111156110d8576f181899199a1a9b1b9c1cb0b131b232b360811b83600f166010811061109457611094611854565b1a60f81b8282815181106110aa576110aa611854565b60200101906001600160f81b031916908160001a90535060049290921c916110d18161186a565b9050611063565b5081156111025760405163e22e27eb60e01b81526004810186905260248101859052604401610519565b949350505050565b600082600001828154811061112157611121611854565b9060005260206000200154905092915050565b60608160000180548060200260200160405190810160405280929190818152602001828054801561118457602002820191906000526020600020905b815481526020019060010190808311611170575b50505050509050919050565b6000818152600183016020526040812054610eed57508154600181810184556000848152602080822090930184905584548482528286019093526040902091909155610346565b600081815260018301602052604081205480156112c05760006111fb600183611881565b855490915060009061120f90600190611881565b905080821461127457600086600001828154811061122f5761122f611854565b906000526020600020015490508087600001848154811061125257611252611854565b6000918252602080832090910192909255918252600188019052604090208390555b855486908061128557611285611894565b600190038181906000526020600020016000905590558560010160008681526020019081526020016000206000905560019350505050610346565b6000915050610346565b6000602082840312156112dc57600080fd5b81356001600160e01b031981168114610a7a57600080fd5b60006020828403121561130657600080fd5b5035919050565b80356001600160a01b038116811461132457600080fd5b919050565b6000806040838503121561133c57600080fd5b8235915061134c6020840161130d565b90509250929050565b60006020828403121561136757600080fd5b610a7a8261130d565b60005b8381101561138b578181015183820152602001611373565b50506000910152565b600081518084526113ac816020860160208601611370565b601f01601f19169290920160200192915050565b602081526000610a7a6020830184611394565b60008083601f8401126113e557600080fd5b50813567ffffffffffffffff8111156113fd57600080fd5b60208301915083602082850101111561141557600080fd5b9250929050565b60008060006040848603121561143157600080fd5b833567ffffffffffffffff81111561144857600080fd5b611454868287016113d3565b909790965060209590950135949350505050565b6000806000806060858703121561147e57600080fd5b6114878561130d565b9350602085013567ffffffffffffffff8111156114a357600080fd5b6114af878288016113d3565b9598909750949560400135949350505050565b600080604083850312156114d557600080fd5b6114de8361130d565b946020939093013593505050565b600080604083850312156114ff57600080fd5b50508035926020909101359150565b6020808252825182820181905260009190848201906040850190845b8181101561154f5783516001600160a01b03168352928401929184019160010161152a565b50909695505050505050565b634e487b7160e01b600052604160045260246000fd5b60006020828403121561158357600080fd5b813567ffffffffffffffff8082111561159b57600080fd5b818401915084601f8301126115af57600080fd5b8135818111156115c1576115c161155b565b604051601f8201601f19908116603f011681019083821181831017156115e9576115e961155b565b8160405282815287602084870101111561160257600080fd5b826020860160208301376000928101602001929092525095945050505050565b6040815260006116356040830185611394565b90508260208301529392505050565b600181811c9082168061165857607f821691505b60208210810361167857634e487b7160e01b600052602260045260246000fd5b50919050565b60008251611690818460208701611370565b9190910192915050565b601f821115610444576000816000526020600020601f850160051c810160208610156116c35750805b601f850160051c820191505b818110156116e2578281556001016116cf565b505050505050565b815167ffffffffffffffff8111156117045761170461155b565b611718816117128454611644565b8461169a565b602080601f83116001811461174d57600084156117355750858301515b600019600386901b1c1916600185901b1785556116e2565b600085815260208120601f198616915b8281101561177c5788860151825594840194600190910190840161175d565b508582101561179a5787850151600019600388901b60f8161c191681555b5050505050600190811b01905550565b604081528260408201528284606083013760006060848301015260006060601f19601f8601168301019050826020830152949350505050565b683234b21d3130b9b29d60b91b815260008251611807816009850160208701611370565b9190910160090192915050565b634e487b7160e01b600052601160045260246000fd5b808202811582820484141761034657610346611814565b8082018082111561034657610346611814565b634e487b7160e01b600052603260045260246000fd5b60008161187957611879611814565b506000190190565b8181038181111561034657610346611814565b634e487b7160e01b600052603160045260246000fdfea26469706673582212205a4d9745800f3064e26b869d86cc291ad54a55ccd7c571946d4b0260abf3d5d164736f6c63430008190033a49807205ce4d355092ef5a8a18f56e8913cf4a201fbe287825b095693c21775",
  "linkReferences": {},
  "deployedLinkReferences": {}
}