{
  "_format": "hh-sol-artifact-1",
  "contractName": "DIDRegistry",
  "sourceName": "contracts/DIDRegistry.sol",
  "abi": [
    {
      "inputs": [
        {
          "internalType": "address",
          "name": "admin",
          "type": "address"
        }
      ],
      "stateMutability": "nonpayable",
      "type": "constructor"
    },
    {
      "inputs": [],
      "name": "AccessControlBadConfirmation",
      "type": "error"
    },
    {
      "inputs": [
        {
          "internalType": "address",
          "name": "account",
          "type": "address"
        },
        {
          "internalType": "bytes32",
          "name": "neededRole",
          "type": "bytes32"
        }
      ],
      "name": "AccessControlUnauthorizedAccount",
      "type": "error"
    },
    {
      "inputs": [
        {
          "internalType": "uint256",
          "name": "value",
          "type": "uint256"
        },
        {
          "internalType": "uint256",
          "name": "length",
          "type": "uint256"
        }
      ],
      "name": "StringsInsufficientHexLength",
      "type": "error"
    },
    {
      "anonymous": false,
      "inputs": [
        {
          "indexed": true,
          "internalType": "address",
          "name": "owner",
          "type": "address"
        },
        {
          "indexed": false,
          "internalType": "string",
          "name": "did",
          "type": "string"
        },
        {
          "indexed": false,
          "internalType": "bytes32",
          "name": "docHash",
          "type": "bytes32"
        }
      ],
      "name": "DIDCreated",
      "type": "event"
    },
    {
      "anonymous": false,
      "inputs": [
        {
          "indexed": true,
          "internalType": "string",
          "name": "did",
          "type": "string"
        },
        {
          "indexed": false,
          "internalType": "string",
          "name": "uri",
          "type": "string"
        },
        {
          "indexed": false,
          "internalType": "bytes32",
          "name": "docHash",
          "type": "bytes32"
        }
      ],
      "name": "DIDDocumentUpdated",
      "type": "event"
    },
    {
      "anonymous": false,
      "inputs": [
        {
          "indexed": true,
          "internalType": "bytes32",
          "name": "role",
          "type": "bytes32"
        },
        {
          "indexed": true,
          "internalType": "bytes32",
          "name": "previousAdminRole",
          "type": "bytes32"
        },
        {
          "indexed": true,
          "internalType": "bytes32",
          "name": "newAdminRole",
          "type": "bytes32"
        }
      ],
      "name": "RoleAdminChanged",
      "type": "event"
    },
    {
      "anonymous": false,
      "inputs": [
        {
          "indexed": true,
          "internalType": "bytes32",
          "name": "role",
          "type": "bytes32"
        },
        {
          "indexed": true,
          "internalType": "address",
          "name": "account",
          "type": "address"
        },
        {
          "indexed": true,
          "internalType": "address",
          "name": "sender",
          "type": "address"
        }
      ],
      "name": "RoleGranted",
      "type": "event"
    },
    {
      "anonymous": false,
      "inputs": [
        {
          "indexed": true,
          "internalType": "bytes32",
          "name": "role",
          "type": "bytes32"
        },
        {
          "indexed": true,
          "internalType": "address",
          "name": "account",
          "type": "address"
        },
        {
          "indexed": true,
          "internalType": "address",
          "name": "sender",
          "type": "address"
        }
      ],
      "name": "RoleRevoked",
      "type": "event"
    },
    {
      "inputs": [],
      "name": "ADMIN_ROLE",
      "outputs": [
        {
          "internalType": "bytes32",
          "name": "",
          "type": "bytes32"
        }
      ],
      "stateMutability": "view",
      "type": "function"
    },
    {
      "inputs": [],
      "name": "DEFAULT_ADMIN_ROLE",
      "outputs": [
        {
          "internalType": "bytes32",
          "name": "",
          "type": "bytes32"
        }
      ],
      "stateMutability": "view",
      "type": "function"
    },
    {
      "inputs": [
        {
          "internalType": "address",
          "name": "owner",
          "type": "address"
        },
        {
          "internalType": "bytes32",
          "name": "docHash",
          "type": "bytes32"
        }
      ],
      "name": "adminCreateDID",
      "outputs": [],
      "stateMutability": "nonpayable",
      "type": "function"
    },
    {
      "inputs": [
        {
          "internalType": "address",
          "name": "owner",
          "type": "address"
        },
        {
          "internalType": "string",
          "name": "uri",
          "type": "string"
        },
        {
          "internalType": "bytes32",
          "name": "hash",
          "type": "bytes32"
        }
      ],
      "name": "adminSetDocument",
      "outputs": [],
      "stateMutability": "nonpayable",
      "type": "function"
    },
    {
      "inputs": [
        {
          "internalType": "bytes32",
          "name": "docHash",
          "type": "bytes32"
        }
      ],
      "name": "createDID",
      "outputs": [],
      "stateMutability": "nonpayable",
      "type": "function"
    },
    {
      "inputs": [
        {
          "internalType": "address",
          "name": "",
          "type": "address"
        }
      ],
      "name": "didOf",
      "outputs": [
        {
          "internalType": "string",
          "name": "",
          "type": "string"
        }
      ],
      "stateMutability": "view",
      "type": "function"
    },
    {
      "inputs": [
        {
          "internalType": "string",
          "name": "",
          "type": "string"
        }
      ],
      "name": "documentOf",
      "outputs": [
        {
          "internalType": "string",
          "name": "uri",
          "type": "string"
        },
        {
          "internalType": "bytes32",
          "name": "docHash",
          "type": "bytes32"
        }
      ],
      "stateMutability": "view",
      "type": "function"
    },
    {
      "inputs": [
        {
          "internalType": "bytes32",
          "name": "role",
          "type": "bytes32"
        }
      ],
      "name": "getRoleAdmin",
      "outputs": [
        {
          "internalType": "bytes32",
          "name": "",
          "type": "bytes32"
        }
      ],
      "stateMutability": "view",
      "type": "function"
    },
    {
      "inputs": [
        {
          "internalType": "bytes32",
          "name": "role",
          "type": "bytes32"
        },
        {
          "internalType": "address",
          "name": "account",
          "type": "address"
        }
      ],
      "name": "grantRole",
      "outputs": [],
      "stateMutability": "nonpayable",
      "type": "function"
    },
    {
      "inputs": [
        {
          "internalType": "address",
          "name": "owner",
          "type": "address"
        }
      ],
      "name": "hasDID",
      "outputs": [
        {
          "internalType": "bool",
          "name": "",
          "type": "bool"
        }
      ],
      "stateMutability": "view",
      "type": "function"
    },
    {
      "inputs": [
        {
          "internalType": "bytes32",
          "name": "role",
          "type": "bytes32"
        },
        {
          "internalType": "address",
          "name": "account",
          "type": "address"
        }
      ],
      "name": "hasRole",
      "outputs": [
        {
          "internalType": "bool",
          "name": "",
          "type": "bool"
        }
      ],
      "stateMutability": "view",
      "type": "function"
    },
    {
      "inputs": [
        {
          "internalType": "bytes32",
          "name": "role",
          "type": "bytes32"
        },
        {
          "internalType": "address",
          "name": "callerConfirmation",
          "type": "address"
        }
      ],
      "name": "renounceRole",
      "outputs": [],
      "stateMutability": "nonpayable",
      "type": "function"
    },
    {
      "inputs": [
        {
          "internalType": "bytes32",
          "name": "role",
          "type": "bytes32"
        },
        {
          "internalType": "address",
          "name": "account",
          "type": "address"
        }
      ],
      "name": "revokeRole",
      "outputs": [],
      "stateMutability": "nonpayable",
      "type": "function"
    },
    {
      "inputs": [
        {
          "internalType": "string",
          "name": "uri",
          "type": "string"
        },
        {
          "internalType": "bytes32",
          "name": "hash",
          "type": "bytes32"
        }
      ],
      "name": "setDocument",
      "outputs": [],
      "stateMutability": "nonpayable",
      "type": "function"
    },
    {
      "inputs": [
        {
          "internalType": "bytes4",
          "name": "id",
          "type": "bytes4"
        }
      ],
      "name": "supportsInterface",
      "outputs": [
        {
          "internalType": "bool",
          "name": "",
          "type": "bool"
        }
      ],
      "stateMutability": "view",
      "type": "function"
    }
  ],
  "bytecode": "0x608060405234801561001057600080fd5b5060405161152c38038061152c83398101604081905261002f91610118565b61003a60008261006c565b506100657fa49807205ce4d355092ef5a8a18f56e8913cf4a201fbe287825b095693c217758261006c565b5050610148565b6000828152602081815260408083206001600160a01b038516845290915281205460ff1661010e576000838152602081815260408083206001600160a01b03861684529091529020805460ff191660011790556100c63390565b6001600160a01b0316826001600160a01b0316847f2f8788117e7eff1d82e926ec794901d17c78024a50270940304540a733656f0d60405160405180910390a4506001610112565b5060005b92915050565b60006020828403121561012a57600080fd5b81516001600160a01b038116811461014157600080fd5b9392505050565b6113d5806101576000396000f3fe608060405234801561001057600080fd5b50600436106100f55760003560e01c806374a38fb111610097578063a217fddf11610066578063a217fddf14610221578063b66103bb14610229578063d0f4b30a1461024a578063d547741f1461025d57600080fd5b806374a38fb1146101c157806375b238fc146101d457806391d14854146101fb578063945ffb0e1461020e57600080fd5b8063364c707b116100d3578063364c707b1461016857806336568abe146101885780633c303d671461019b578063604d10bf146101ae57600080fd5b806301ffc9a7146100fa578063248a9ca3146101225780632f2ff15d14610153575b600080fd5b61010d610108366004610e4f565b610270565b60405190151581526020015b60405180910390f35b610145610130366004610e80565b60009081526020819052604090206001015490565b604051908152602001610119565b610166610161366004610eb5565b61029b565b005b61017b610176366004610ee1565b6102c6565b6040516101199190610f4c565b610166610196366004610eb5565b610360565b6101666101a9366004610fa8565b610398565b6101666101bc366004610ff4565b610548565b6101666101cf36600461104e565b610732565b6101457fa49807205ce4d355092ef5a8a18f56e8913cf4a201fbe287825b095693c2177581565b61010d610209366004610eb5565b6108cb565b61016661021c366004610e80565b6108f4565b610145600081565b61023c61023736600461108e565b610a17565b60405161011992919061113f565b61010d610258366004610ee1565b610ac6565b61016661026b366004610eb5565b610af2565b60006001600160e01b031982166301ffc9a760e01b1480610295575061029582610b17565b92915050565b6000828152602081905260409020600101546102b681610b4c565b6102c08383610b59565b50505050565b600160205260009081526040902080546102df90611161565b80601f016020809104026020016040519081016040528092919081815260200182805461030b90611161565b80156103585780601f1061032d57610100808354040283529160200191610358565b820191906000526020600020905b81548152906001019060200180831161033b57829003601f168201915b505050505081565b6001600160a01b03811633146103895760405163334bd91960e11b815260040160405180910390fd5b6103938282610beb565b505050565b33600090815260016020526040812080546103b290611161565b80601f01602080910402602001604051908101604052809291908181526020018280546103de90611161565b801561042b5780601f106104005761010080835404028352916020019161042b565b820191906000526020600020905b81548152906001019060200180831161040e57829003601f168201915b5050505050905080516000036104715760405162461bcd60e51b8152602060048201526006602482015265139bc811125160d21b60448201526064015b60405180910390fd5b6040805160606020601f870181900402820181018352918101858152909182919087908790819085018382808284376000920191909152505050908252506020018390526040516002906104c690849061119b565b908152604051908190036020019020815181906104e39082611207565b5060208201518160010155905050806040516104ff919061119b565b60405180910390207f4cb8f6c4c4d6be94e7161c7f911653d2ba3b85dd28eccfd6b91f11055c2c262585858560405161053a939291906112c7565b60405180910390a250505050565b7fa49807205ce4d355092ef5a8a18f56e8913cf4a201fbe287825b095693c2177561057281610b4c565b6001600160a01b0385166000908152600160205260408120805461059590611161565b80601f01602080910402602001604051908101604052809291908181526020018280546105c190611161565b801561060e5780601f106105e35761010080835404028352916020019161060e565b820191906000526020600020905b8154815290600101906020018083116105f157829003601f168201915b5050505050905080516000036106595760405162461bcd60e51b815260206004820152601060248201526f13dddb995c881a185cc81b9bc811125160821b6044820152606401610468565b6040805160606020601f880181900402820181018352918101868152909182919088908890819085018382808284376000920191909152505050908252506020018490526040516002906106ae90849061119b565b908152604051908190036020019020815181906106cb9082611207565b5060208201518160010155905050806040516106e7919061119b565b60405180910390207f4cb8f6c4c4d6be94e7161c7f911653d2ba3b85dd28eccfd6b91f11055c2c2625868686604051610722939291906112c7565b60405180910390a2505050505050565b7fa49807205ce4d355092ef5a8a18f56e8913cf4a201fbe287825b095693c2177561075c81610b4c565b6001600160a01b0383166107a25760405162461bcd60e51b815260206004820152600d60248201526c4f776e6572206973207a65726f60981b6044820152606401610468565b6001600160a01b038316600090815260016020526040902080546107c590611161565b1590506108095760405162461bcd60e51b815260206004820152601260248201527144494420616c72656164792065786973747360701b6044820152606401610468565b600061081484610c56565b6001600160a01b03851660009081526001602052604090209091506108398282611207565b50604080516060810182526000818301908152815260208101859052905160029061086590849061119b565b908152604051908190036020019020815181906108829082611207565b5060208201518160010155905050836001600160a01b03167fa3669e30eda7f2117f40d98fcd3ab3e5564dfe936d3cd5ae68878bba65020eef828560405161053a92919061113f565b6000918252602082815260408084206001600160a01b0393909316845291905290205460ff1690565b336000908152600160205260409020805461090e90611161565b1590506109525760405162461bcd60e51b815260206004820152601260248201527144494420616c72656164792065786973747360701b6044820152606401610468565b600061095d33610c56565b3360009081526001602052604090209091506109798282611207565b5060408051606081018252600081830190815281526020810184905290516002906109a590849061119b565b908152604051908190036020019020815181906109c29082611207565b5060208201518160010155905050336001600160a01b03167fa3669e30eda7f2117f40d98fcd3ab3e5564dfe936d3cd5ae68878bba65020eef8284604051610a0b92919061113f565b60405180910390a25050565b8051602081830181018051600282529282019190930120915280548190610a3d90611161565b80601f0160208091040260200160405190810160405280929190818152602001828054610a6990611161565b8015610ab65780601f10610a8b57610100808354040283529160200191610ab6565b820191906000526020600020905b815481529060010190602001808311610a9957829003601f168201915b5050505050908060010154905082565b6001600160a01b03811660009081526001602052604081208054610ae990611161565b15159392505050565b600082815260208190526040902060010154610b0d81610b4c565b6102c08383610beb565b60006001600160e01b03198216637965db0b60e01b148061029557506301ffc9a760e01b6001600160e01b0319831614610295565b610b568133610c92565b50565b6000610b6583836108cb565b610be3576000838152602081815260408083206001600160a01b03861684529091529020805460ff19166001179055610b9b3390565b6001600160a01b0316826001600160a01b0316847f2f8788117e7eff1d82e926ec794901d17c78024a50270940304540a733656f0d60405160405180910390a4506001610295565b506000610295565b6000610bf783836108cb565b15610be3576000838152602081815260408083206001600160a01b0386168085529252808320805460ff1916905551339286917ff6391f5c32d9c69d2a47ea670b442974b53935d1edc7fd64eb21e047a839171b9190a4506001610295565b6060610c6c826001600160a01b03166014610ccf565b604051602001610c7c9190611300565b6040516020818303038152906040529050919050565b610c9c82826108cb565b610ccb5760405163e2517d3f60e01b81526001600160a01b038216600482015260248101839052604401610468565b5050565b6060826000610cdf846002611348565b610cea90600261135f565b67ffffffffffffffff811115610d0257610d02611078565b6040519080825280601f01601f191660200182016040528015610d2c576020820181803683370190505b509050600360fc1b81600081518110610d4757610d47611372565b60200101906001600160f81b031916908160001a905350600f60fb1b81600181518110610d7657610d76611372565b60200101906001600160f81b031916908160001a9053506000610d9a856002611348565b610da590600161135f565b90505b6001811115610e1d576f181899199a1a9b1b9c1cb0b131b232b360811b83600f1660108110610dd957610dd9611372565b1a60f81b828281518110610def57610def611372565b60200101906001600160f81b031916908160001a90535060049290921c91610e1681611388565b9050610da8565b508115610e475760405163e22e27eb60e01b81526004810186905260248101859052604401610468565b949350505050565b600060208284031215610e6157600080fd5b81356001600160e01b031981168114610e7957600080fd5b9392505050565b600060208284031215610e9257600080fd5b5035919050565b80356001600160a01b0381168114610eb057600080fd5b919050565b60008060408385031215610ec857600080fd5b82359150610ed860208401610e99565b90509250929050565b600060208284031215610ef357600080fd5b610e7982610e99565b60005b83811015610f17578181015183820152602001610eff565b50506000910152565b60008151808452610f38816020860160208601610efc565b601f01601f19169290920160200192915050565b602081526000610e796020830184610f20565b60008083601f840112610f7157600080fd5b50813567ffffffffffffffff811115610f8957600080fd5b602083019150836020828501011115610fa157600080fd5b9250929050565b600080600060408486031215610fbd57600080fd5b833567ffffffffffffffff811115610fd457600080fd5b610fe086828701610f5f565b909790965060209590950135949350505050565b6000806000806060858703121561100a57600080fd5b61101385610e99565b9350602085013567ffffffffffffffff81111561102f57600080fd5b61103b87828801610f5f565b9598909750949560400135949350505050565b6000806040838503121561106157600080fd5b61106a83610e99565b946020939093013593505050565b634e487b7160e01b600052604160045260246000fd5b6000602082840312156110a057600080fd5b813567ffffffffffffffff808211156110b857600080fd5b818401915084601f8301126110cc57600080fd5b8135818111156110de576110de611078565b604051601f8201601f19908116603f0116810190838211818310171561110657611106611078565b8160405282815287602084870101111561111f57600080fd5b826020860160208301376000928101602001929092525095945050505050565b6040815260006111526040830185610f20565b90508260208301529392505050565b600181811c9082168061117557607f821691505b60208210810361119557634e487b7160e01b600052602260045260246000fd5b50919050565b600082516111ad818460208701610efc565b9190910192915050565b601f821115610393576000816000526020600020601f850160051c810160208610156111e05750805b601f850160051c820191505b818110156111ff578281556001016111ec565b505050505050565b815167ffffffffffffffff81111561122157611221611078565b6112358161122f8454611161565b846111b7565b602080601f83116001811461126a57600084156112525750858301515b600019600386901b1c1916600185901b1785556111ff565b600085815260208120601f198616915b828110156112995788860151825594840194600190910190840161127a565b50858210156112b75787850151600019600388901b60f8161c191681555b5050505050600190811b01905550565b604081528260408201528284606083013760006060848301015260006060601f19601f8601168301019050826020830152949350505050565b693234b21d333630b9329d60b11b81526000825161132581600a850160208701610efc565b91909101600a0192915050565b634e487b7160e01b600052601160045260246000fd5b808202811582820484141761029557610295611332565b8082018082111561029557610295611332565b634e487b7160e01b600052603260045260246000fd5b60008161139757611397611332565b50600019019056fea264697066735822122094fd809e96c83f5da97a54943cb0aef04bd112c1237110e6461657682d823c3764736f6c63430008190033",
  "linkReferences": {},
  "deployedLinkReferences": {}
}