{
  "_format": "hh-sol-artifact-1",
  "contractName": "SubscriptionManager",
  "sourceName": "contracts/SubscriptionManager.sol",
  "abi": [
    {
      "inputs": [
        {
          "internalType": "address",
          "name": "admin",
          "type": "address"
        },
        {
          "internalType": "uint256",
          "name": "priceWeiBase",
          "type": "uint256"
        },
        {
          "internalType": "uint256",
          "name": "priceWeiPlus",
          "type": "uint256"
        }
      ],
      "stateMutability": "nonpayable",
      "type": "constructor"
    },
    {
      "inputs": [],
      "name": "AccessControlBadConfirmation",
      "type": "error"
    },
    {
      "inputs": [
        {
          "internalType": "address",
          "name": "account",
          "type": "address"
        },
        {
          "internalType": "bytes32",
          "name": "neededRole",
          "type": "bytes32"
        }
      ],
      "name": "AccessControlUnauthorizedAccount",
      "type": "error"
    },
    {
      "anonymous": false,
      "inputs": [
        {
          "indexed": true,
          "internalType": "bytes32",
          "name": "role",
          "type": "bytes32"
        },
        {
          "indexed": true,
          "internalType": "bytes32",
          "name": "previousAdminRole",
          "type": "bytes32"
        },
        {
          "indexed": true,
          "internalType": "bytes32",
          "name": "newAdminRole",
          "type": "bytes32"
        }
      ],
      "name": "RoleAdminChanged",
      "type": "event"
    },
    {
      "anonymous": false,
      "inputs": [
        {
          "indexed": true,
          "internalType": "bytes32",
          "name": "role",
          "type": "bytes32"
        },
        {
          "indexed": true,
          "internalType": "address",
          "name": "account",
          "type": "address"
        },
        {
          "indexed": true,
          "internalType": "address",
          "name": "sender",
          "type": "address"
        }
      ],
      "name": "RoleGranted",
      "type": "event"
    },
    {
      "anonymous": false,
      "inputs": [
        {
          "indexed": true,
          "internalType": "bytes32",
          "name": "role",
          "type": "bytes32"
        },
        {
          "indexed": true,
          "internalType": "address",
          "name": "account",
          "type": "address"
        },
        {
          "indexed": true,
          "internalType": "address",
          "name": "sender",
          "type": "address"
        }
      ],
      "name": "RoleRevoked",
      "type": "event"
    },
    {
      "anonymous": false,
      "inputs": [
        {
          "indexed": true,
          "internalType": "address",
          "name": "team",
          "type": "address"
        },
        {
          "indexed": true,
          "internalType": "uint8",
          "name": "planKey",
          "type": "uint8"
        },
        {
          "indexed": false,
          "internalType": "uint256",
          "name": "paidUntil",
          "type": "uint256"
        }
      ],
      "name": "SubscriptionPaid",
      "type": "event"
    },
    {
      "inputs": [],
      "name": "ADMIN_ROLE",
      "outputs": [
        {
          "internalType": "bytes32",
          "name": "",
          "type": "bytes32"
        }
      ],
      "stateMutability": "view",
      "type": "function"
    },
    {
      "inputs": [],
      "name": "DEFAULT_ADMIN_ROLE",
      "outputs": [
        {
          "internalType": "bytes32",
          "name": "",
          "type": "bytes32"
        }
      ],
      "stateMutability": "view",
      "type": "function"
    },
    {
      "inputs": [],
      "name": "PERIOD",
      "outputs": [
        {
          "internalType": "uint256",
          "name": "",
          "type": "uint256"
        }
      ],
      "stateMutability": "view",
      "type": "function"
    },
    {
      "inputs": [
        {
          "internalType": "bytes32",
          "name": "role",
          "type": "bytes32"
        }
      ],
      "name": "getRoleAdmin",
      "outputs": [
        {
          "internalType": "bytes32",
          "name": "",
          "type": "bytes32"
        }
      ],
      "stateMutability": "view",
      "type": "function"
    },
    {
      "inputs": [
        {
          "internalType": "bytes32",
          "name": "role",
          "type": "bytes32"
        },
        {
          "internalType": "address",
          "name": "account",
          "type": "address"
        }
      ],
      "name": "grantRole",
      "outputs": [],
      "stateMutability": "nonpayable",
      "type": "function"
    },
    {
      "inputs": [
        {
          "internalType": "bytes32",
          "name": "role",
          "type": "bytes32"
        },
        {
          "internalType": "address",
          "name": "account",
          "type": "address"
        }
      ],
      "name": "hasRole",
      "outputs": [
        {
          "internalType": "bool",
          "name": "",
          "type": "bool"
        }
      ],
      "stateMutability": "view",
      "type": "function"
    },
    {
      "inputs": [
        {
          "internalType": "address",
          "name": "team",
          "type": "address"
        }
      ],
      "name": "paidUntil",
      "outputs": [
        {
          "internalType": "uint256",
          "name": "",
          "type": "uint256"
        }
      ],
      "stateMutability": "view",
      "type": "function"
    },
    {
      "inputs": [
        {
          "internalType": "address",
          "name": "team",
          "type": "address"
        },
        {
          "internalType": "uint8",
          "name": "planKey",
          "type": "uint8"
        }
      ],
      "name": "paySubscription",
      "outputs": [],
      "stateMutability": "payable",
      "type": "function"
    },
    {
      "inputs": [
        {
          "internalType": "uint8",
          "name": "",
          "type": "uint8"
        }
      ],
      "name": "planPriceWei",
      "outputs": [
        {
          "internalType": "uint256",
          "name": "",
          "type": "uint256"
        }
      ],
      "stateMutability": "view",
      "type": "function"
    },
    {
      "inputs": [
        {
          "internalType": "bytes32",
          "name": "role",
          "type": "bytes32"
        },
        {
          "internalType": "address",
          "name": "callerConfirmation",
          "type": "address"
        }
      ],
      "name": "renounceRole",
      "outputs": [],
      "stateMutability": "nonpayable",
      "type": "function"
    },
    {
      "inputs": [
        {
          "internalType": "bytes32",
          "name": "role",
          "type": "bytes32"
        },
        {
          "internalType": "address",
          "name": "account",
          "type": "address"
        }
      ],
      "name": "revokeRole",
      "outputs": [],
      "stateMutability": "nonpayable",
      "type": "function"
    },
    {
      "inputs": [
        {
          "internalType": "uint8",
          "name": "planKey",
          "type": "uint8"
        },
        {
          "internalType": "uint256",
          "name": "newPriceWei",
          "type": "uint256"
        }
      ],
      "name": "setPlanPrice",
      "outputs": [],
      "stateMutability": "nonpayable",
      "type": "function"
    },
    {
      "inputs": [
        {
          "internalType": "bytes4",
          "name": "id",
          "type": "bytes4"
        }
      ],
      "name": "supportsInterface",
      "outputs": [
        {
          "internalType": "bool",
          "name": "",
          "type": "bool"
        }
      ],
      "stateMutability": "view",
      "type": "function"
    }
  ],
  "bytecode": "0x608060405234801561001057600080fd5b50604051610a55380380610a5583398101604081905261002f9161016c565b61003a6000846100c0565b506100657fa49807205ce4d355092ef5a8a18f56e8913cf4a201fbe287825b095693c21775846100c0565b50600260208190527fe90b7bceb6e7df5418fb78d8ee546e97c83a08bbccc01a0644d599ccd2a7c2e0929092556000919091527f679795a0195a1b76cdebb7c51d74e058aee92919b8c3389af86ef24535e8a28c55506101af565b6000828152602081815260408083206001600160a01b038516845290915281205460ff16610162576000838152602081815260408083206001600160a01b03861684529091529020805460ff1916600117905561011a3390565b6001600160a01b0316826001600160a01b0316847f2f8788117e7eff1d82e926ec794901d17c78024a50270940304540a733656f0d60405160405180910390a4506001610166565b5060005b92915050565b60008060006060848603121561018157600080fd5b83516001600160a01b038116811461019857600080fd5b602085015160409095015190969495509392505050565b610897806101be6000396000f3fe6080604052600436106100c25760003560e01c806388b66e291161007f5780639564cd24116100595780639564cd2414610253578063a217fddf14610266578063b4d1d7951461027b578063d547741f1461029257600080fd5b806388b66e29146101d057806391d14854146101fd57806392cff5fe1461021d57600080fd5b806301ffc9a7146100c7578063248a9ca3146100fc57806325a7f8191461013a5780632f2ff15d1461015c57806336568abe1461017c57806375b238fc1461019c575b600080fd5b3480156100d357600080fd5b506100e76100e2366004610713565b6102b2565b60405190151581526020015b60405180910390f35b34801561010857600080fd5b5061012c610117366004610744565b60009081526020819052604090206001015490565b6040519081526020016100f3565b34801561014657600080fd5b5061015a610155366004610773565b6102de565b005b34801561016857600080fd5b5061015a6101773660046107b4565b610383565b34801561018857600080fd5b5061015a6101973660046107b4565b6103ae565b3480156101a857600080fd5b5061012c7fa49807205ce4d355092ef5a8a18f56e8913cf4a201fbe287825b095693c2177581565b3480156101dc57600080fd5b5061012c6101eb3660046107e0565b60026020526000908152604090205481565b34801561020957600080fd5b506100e76102183660046107b4565b6103e6565b34801561022957600080fd5b5061012c6102383660046107fb565b6001600160a01b031660009081526001602052604090205490565b61015a610261366004610816565b61040f565b34801561027257600080fd5b5061012c600081565b34801561028757600080fd5b5061012c62278d0081565b34801561029e57600080fd5b5061015a6102ad3660046107b4565b610572565b60006102bd82610597565b806102d857506001600160e01b031982166301ffc9a760e01b145b92915050565b7fa49807205ce4d355092ef5a8a18f56e8913cf4a201fbe287825b095693c21775610308816105cc565b8260ff1660000361036c5760405162461bcd60e51b815260206004820152602360248201527f537562736372697074696f6e3a20706c616e4b657920302069732072657365726044820152621d995960ea1b60648201526084015b60405180910390fd5b5060ff909116600090815260026020526040902055565b60008281526020819052604090206001015461039e816105cc565b6103a883836105d9565b50505050565b6001600160a01b03811633146103d75760405163334bd91960e11b815260040160405180910390fd5b6103e1828261066b565b505050565b6000918252602082815260408084206001600160a01b0393909316845291905290205460ff1690565b60ff81166000908152600260205260409020548061046f5760405162461bcd60e51b815260206004820152601a60248201527f537562736372697074696f6e3a20756e6b6e6f776e20706c616e0000000000006044820152606401610363565b8034146104be5760405162461bcd60e51b815260206004820152601f60248201527f537562736372697074696f6e3a20696e636f7272656374207061796d656e74006044820152606401610363565b6001600160a01b03831660009081526001602052604081205442106104e357426104fd565b6001600160a01b0384166000908152600160205260409020545b9050600061050e62278d0083610840565b6001600160a01b038616600081815260016020526040908190208390555191925060ff8616917f93f5683cd2a0b9749f9b7565b21809261c2a5db4d337b4bbea8dbdf4684756f9906105639085815260200190565b60405180910390a35050505050565b60008281526020819052604090206001015461058d816105cc565b6103a8838361066b565b60006001600160e01b03198216637965db0b60e01b14806102d857506301ffc9a760e01b6001600160e01b03198316146102d8565b6105d681336106d6565b50565b60006105e583836103e6565b610663576000838152602081815260408083206001600160a01b03861684529091529020805460ff1916600117905561061b3390565b6001600160a01b0316826001600160a01b0316847f2f8788117e7eff1d82e926ec794901d17c78024a50270940304540a733656f0d60405160405180910390a45060016102d8565b5060006102d8565b600061067783836103e6565b15610663576000838152602081815260408083206001600160a01b0386168085529252808320805460ff1916905551339286917ff6391f5c32d9c69d2a47ea670b442974b53935d1edc7fd64eb21e047a839171b9190a45060016102d8565b6106e082826103e6565b61070f5760405163e2517d3f60e01b81526001600160a01b038216600482015260248101839052604401610363565b5050565b60006020828403121561072557600080fd5b81356001600160e01b03198116811461073d57600080fd5b9392505050565b60006020828403121561075657600080fd5b5035919050565b803560ff8116811461076e57600080fd5b919050565b6000806040838503121561078657600080fd5b61078f8361075d565b946020939093013593505050565b80356001600160a01b038116811461076e57600080fd5b600080604083850312156107c757600080fd5b823591506107d76020840161079d565b90509250929050565b6000602082840312156107f257600080fd5b61073d8261075d565b60006020828403121561080d57600080fd5b61073d8261079d565b6000806040838503121561082957600080fd5b6108328361079d565b91506107d76020840161075d565b808201808211156102d857634e487b7160e01b600052601160045260246000fdfea26469706673582212202b1040a677b71bbd590e6c63dfd5f585ccbe5c4253937b43b3e8cb9bd952198864736f6c63430008190033",
  "linkReferences": {},
  "deployedLinkReferences": {}
}